:020000040800F2
:1000000000000120AD230008B9220008BF2200082B
:10001000C5220008CB220008D12200080000000001
:10002000000000000000000000000000B17900089E
:10003000D722000800000000917B0008E32200089E
:10004000F5230008F5230008F5230008F523000830
:10005000F5230008F5230008F5230008F523000820
:10006000F5230008F5230008F5230008F523000810
:10007000F5230008F5230008F5230008F523000800
:10008000F5230008F5230008F5230008F5230008F0
:10009000F5230008F5230008F5230008FD220008D9
:1000A000F5230008F5230008F52300080D230008B8
:1000B000F5230008F5230008F5230008F5230008C0
:1000C000F5230008F5230008F5230008F5230008B0
:1000D000F5230008F5230008F52300082123000874
:1000E000F5230008F5230008F5230008F523000890
:1000F000F5230008F5230008F5230008F523000880
:10010000F5230008F5230008F5230008F52300086F
:10011000F5230008F5230008F5230008F52300085F
:10012000F5230008F5230008F5230008F52300084F
:1001300000000000000000000000000000000000BF
:1001400000000000000000000000000000000000AF
:10015000000000000000000000000000000000009F
:10016000000000000000000000000000000000008F
:10017000000000000000000000000000000000007F
:10018000000000000000000000000000000000006F
:10019000000000000000000000000000000000005F
:1001A000000000000000000000000000000000004F
:1001B000000000000000000000000000000000003F
:1001C000000000000000000000000000000000002F
:1001D000000000000000000000000000000000001F
:0401E0005FF8E0F1F3
:1001F00010B5054C237833B9044B13B10448AFF361
:1002000000800123237010BD80000020000000004A
:10021000C48D000808B5034B1BB103490348AFF375
:10022000008008BD0000000084000020C48D00088C
:1002300081F0004102E000BF83F0004330B54FEA97
:1002400041044FEA430594EA050F08BF90EA020F04
:100250001FBF54EA000C55EA020C7FEA645C7FEA97
:10026000655C00F0E2804FEA5454D4EB5555B8BFBA
:100270006D420CDD2C4480EA020281EA030382EA2B
:10028000000083EA010180EA020281EA0303362DBD
:1002900088BF30BD11F0004F4FEA01314FF4801C90
:1002A0004CEA113102D0404261EB410113F0004FA2
:1002B0004FEA03334CEA133302D0524263EB430359
:1002C00094EA050F00F0A780A4F10104D5F1200EF7
:1002D0000DDB02FA0EFC22FA05F2801841F1000152
:1002E00003FA0EF2801843FA05F359410EE0A5F126
:1002F00020050EF1200E012A03FA0EFC28BF4CF057
:10030000020C43FA05F3C01851EBE37101F000450C
:1003100007D54FF0000EDCF1000C7EEB00006EEB19
:100320000101B1F5801F1BD3B1F5001F0CD34908A3
:100330005FEA30004FEA3C0C04F101044FEA4452FA
:1003400012F5800F80F09A80BCF1004F08BF5FEA81
:10035000500C50F1000041EB045141EA050130BD61
:100360005FEA4C0C404141EB0101013C28BFB1F573
:10037000801FE9D291F0000F04BF01460020B1FABE
:1003800081F308BF2033A3F10B03B3F120020CDA91
:100390000C3208DD02F1140CC2F10C0201FA0CF06F
:1003A00021FA02F10CE002F11402D8BFC2F1200CD4
:1003B00001FA02F120FA0CFCDCBF41EA0C0190408A
:1003C000E41AA2BF01EB0451294330BD6FEA0404D3
:1003D0001F3C1CDA0C340EDC04F11404C4F12002BE
:1003E00020FA04F001FA02F340EA030021FA04F3D0
:1003F00045EA030130BDC4F10C04C4F1200220FA27
:1004000002F001FA04F340EA0300294630BD21FA64
:1004100004F0294630BD94F0000F83F4801306BF2A
:1004200081F480110134013D4EE77FEA645C18BF1E
:100430007FEA655C29D094EA050F08BF90EA020FB5
:1004400005D054EA000C04BF1946104630BD91EAAD
:10045000030F1EBF0021002030BD5FEA545C05D1B0
:100460004000494128BF41F0004130BD14F58004EF
:100470003CBF01F5801130BD01F0004545F0FE4163
:1004800041F470014FF0000030BD7FEA645C1ABF98
:10049000194610467FEA655C1CBF0B46024650EACF
:1004A000013406BF52EA033591EA030F41F40021FB
:1004B00030BD00BF90F0000F04BF0021704730B581
:1004C0004FF4806404F132044FF000054FF0000156
:1004D00050E700BF90F0000F04BF0021704730B517
:1004E0004FF4806404F1320410F0004548BF4042EC
:1004F0004FF000013EE700BF42004FEAE2014FEA41
:1005000031014FEA02701FBF12F07F4393F07F4F1B
:1005100081F06051704732F07F4208BF704793F01E
:100520007F4F04BF41F40021704730B54FF4607431
:1005300001F0004521F000411CE700BF50EA010234
:1005400008BF704730B54FF000050AE050EA0102DD
:1005500008BF704730B511F0004502D5404261EB4D
:1005600041014FF4806404F132045FEA915C3FF48E
:10057000D8AE4FF003025FEADC0C18BF03325FEA2B
:10058000DC0C18BF033202EBDC02C2F1200300FADC
:1005900003FC20FA02F001FA03FE40EA0E0021FA01
:1005A00002F11444BDE600BF70B54FF0FF0C4CF4EF
:1005B000E06C1CEA11541DBF1CEA135594EA0C0FA1
:1005C00095EA0C0F00F0DEF82C4481EA030621EADC
:1005D0004C5123EA4C5350EA013518BF52EA033517
:1005E00041F4801143F4801338D0A0FB02CE4FF0C9
:1005F0000005E1FB02E506F00042E0FB03E54FF0F9
:100600000006E1FB03569CF0000F18BF4EF0010EF0
:10061000A4F1FF04B6F5007F64F5407404D25FEAEC
:100620004E0E6D4146EB060642EAC62141EA55519F
:100630004FEAC52040EA5E504FEACE2EB4F1FD0CE1
:1006400088BFBCF5E06F1ED8BEF1004F08BF5FEA5F
:10065000500E50F1000041EB045170BD06F0004611
:1006600046EA010140EA020081EA0301B4EB5C04BE
:10067000C2BFD4EB0C0541EA045170BD41F48011B6
:100680004FF0000E013C00F3AB8014F1360FDEBFDB
:10069000002001F0004170BDC4F10004203C35DAB7
:1006A0000C341BDC04F11404C4F1200500FA05F33A
:1006B00020FA04F001FA05F240EA020001F00042DB
:1006C00021F0004110EBD37021FA04F642EB060151
:1006D0005EEA430E08BF20EAD37070BDC4F10C047B
:1006E000C4F1200500FA04F320FA05F001FA04F23F
:1006F00040EA020001F0004110EBD37041F100012B
:100700005EEA430E08BF20EAD37070BDC4F1200535
:1007100000FA05F24EEA020E20FA04F301FA05F29D
:1007200043EA020321FA04F001F0004121FA04F245
:1007300020EA020000EBD3705EEA430E08BF20EA15
:10074000D37070BD94F0000F0FD101F0004640004F
:1007500041EB010111F4801F08BF013CF7D041EAD1
:10076000060195F0000F18BF704703F000465200D5
:1007700043EB030313F4801F08BF013DF7D043EAA6
:100780000603704794EA0C0F0CEA135518BF95EA5C
:100790000C0F0CD050EA410618BF52EA4306D1D1E3
:1007A00081EA030101F000414FF0000070BD50EA02
:1007B000410606BF1046194652EA430619D094EA8C
:1007C0000C0F02D150EA013613D195EA0C0F05D176
:1007D00052EA03361CBF104619460AD181EA0301CA
:1007E00001F0004141F0FE4141F470014FF0000082
:1007F00070BD41F0FE4141F4780170BD70B54FF01D
:10080000FF0C4CF4E06C1CEA11541DBF1CEA13559C
:1008100094EA0C0F95EA0C0F00F0A7F8A4EB05047E
:1008200081EA030E52EA03354FEA013100F0888075
:100830004FEA03334FF0805545EA131343EA12633E
:100840004FEA022245EA111545EA10654FEA0026F3
:100850000EF000419D4208BF964244F1FD0404F5AC
:10086000407402D25B084FEA3202B61A65EB030508
:100870005B084FEA32024FF480104FF4002CB6EBC5
:10088000020E75EB030E22BFB61A754640EA0C0045
:100890005B084FEA3202B6EB020E75EB030E22BF85
:1008A000B61A754640EA5C005B084FEA3202B6EBC6
:1008B000020E75EB030E22BFB61A754640EA9C0085
:1008C0005B084FEA3202B6EB020E75EB030E22BF55
:1008D000B61A754640EADC0055EA060E18D04FEA13
:1008E000051545EA16754FEA06164FEAC30343EAB3
:1008F00052734FEAC2025FEA1C1CC0D111F4801F80
:100900000BD141EA00014FF000004FF0004CB6E778
:1009100011F4801F04BF01430020B4F1FD0C88BF17
:10092000BCF5E06F3FF6AFAEB5EB030C04BFB6EB22
:10093000020C5FEA500C50F1000041EB045170BD15
:100940000EF0004E4EEA113114EB5C04C2BFD4EB42
:100950000C0541EA045170BD41F480114FF0000EC6
:10096000013C90E645EA060E8DE60CEA135594EA42
:100970000C0F08BF95EA0C0F3FF43BAF94EA0C0F45
:100980000AD150EA01347FF434AF95EA0C0F7FF4BA
:1009900025AF104619462CE795EA0C0F06D152EA0E
:1009A00003353FF4FDAE1046194622E750EA4106F2
:1009B00018BF52EA43067FF4C5AE50EA41047FF403
:1009C0000DAF52EA43057FF4EBAE12E74FF0FF3C68
:1009D00006E000BF4FF0010C02E000BF4FF0010C39
:1009E0004DF804CD4FEA410C7FEA6C5C4FEA430CB2
:1009F00018BF7FEA6C5C1BD001B050EA410C0CBF01
:100A000052EA430C91EA030F02BF90EA020F002062
:100A1000704710F1000F91EA030F58BF994208BFC9
:100A200090422CBFD8176FEAE37040F00100704786
:100A30004FEA410C7FEA6C5C02D150EA013C07D1DD
:100A40004FEA430C7FEA6C5CD6D152EA033CD3D028
:100A50005DF8040B704700BF8446104662468C4622
:100A60001946634600E000BF01B5FFF7B7FF002855
:100A700048BF10F1000F01BD4DF808EDFFF7F4FF7E
:100A80000CBF012000205DF808FB00BF4DF808ED09
:100A9000FFF7EAFF34BF012000205DF808FB00BF2C
:100AA0004DF808EDFFF7E0FF94BF012000205DF84E
:100AB00008FB00BF4DF808EDFFF7CEFF94BF012003
:100AC00000205DF808FB00BF4DF808EDFFF7C4FFFC
:100AD00034BF012000205DF808FB00BF4A0011D29E
:100AE00012F5001211D20DD56FF47873B3EB625288
:100AF0000ED44FEAC12343F0004343EA505323FA94
:100B000002F070474FF00000704750EA013002D108
:100B10004FF0FF3070474FF00000704700000000BA
:100B200080B58EB006AF22A3D3E90023C7E9062320
:100B300021A3D3E90023C7E904231FA3D3E900239A
:100B4000C7E902230023FB71C8233B601C4B1D4AED
:100B50001A601B4B19683B680593FB790493D7E92E
:100B60000223CDE90223D7E90423CDE90023D7E905
:100B70000623084601F040FC134B144A1A60124B3E
:100B800019683B680593FB790493D7E90223CDE903
:100B90000223D7E90423CDE90023D7E90623084639
:100BA00001F02AFC00BF2037BD4680BDAFF30080B6
:100BB000333333333333D33F9A9999999999B93F62
:100BC00010210020701E0020081D0020D8190020D0
:100BD00080B400AF084B00221A60074B19225A60FC
:100BE000054B00229A60044B5B68013B024AD360CC
:100BF00000BFBD4680BC70470C1F002080B400AF12
:100C0000054B1B68002B0CBF01230023DBB21846E9
:100C1000BD4680BC704700BF0C1F002080B400AFF1
:100C2000064B1A68054B5B689A420CBF01230023F0
:100C3000DBB21846BD4680BC704700BF0C1F0020C9
:100C400090B5ADF5037D7EAF7860204C684604F129
:100C500010034FF4FA72194607F072FC94E80F0083
:100C6000FFF7DCFF0346002B2BD1184BDB68013369
:100C7000164A526893FBF2F102FB01F29B1A134AE7
:100C8000D360124B1B680133104A13600023FB60D2
:100C900013E0FB687A6813440C4AD26818780B4951
:100CA00013469B0013449B00CA18FB68134410337F
:100CB00002461A70FB680133FB60FB68132BE8DD0A
:100CC00000E000BF1437BD4690BD00BF0C1F0020E0
:100CD000B0B489B000AF7860184B9A6817491346D2
:100CE0009B0013449B000B44103307F10C041D467A
:100CF0000FCD0FC42B682360104B9B6801330F4A44
:100D0000526893FBF2F102FB01F29B1A0B4A9360CB
:100D10000A4B1B68013B094A13607B681D4607F1BB
:100D20000C040FCC28606960AA60EB602068286121
:100D300078682437BD46B0BC704700BF0C1F002048
:100D400080B485B000AF7860C7F800C00023FB8195
:100D50000023BB6012E0FB891A46920013445B003B
:100D6000FB81BB687A6813441B789AB2FB891344F1
:100D70009BB2303BFB81BB680133BB60BB68022B7D
:100D8000E9DDFB8918461437BD4680BC704700007A
:100D900090B599B002AF07F16803BB63FFF72EFF70
:100DA0000346002B40F0FE8007F124031846FFF7AE
:100DB0008FFF00237B650DE007F124027B6D134458
:100DC000197807F110027B6D13440A461A707B6D87
:100DD00001337B657B6D132BEEDD002387F8233019
:100DE0003B7C3B737B7C7B73BB7CBB7307F10C034D
:100DF00007F1380294461846FFF7A2FF03461A4649
:100E00006D4B1A8007F1100207F13C036B4918463D
:100E100007F0ACFB07F13C031A460021002007F065
:100E2000A7FA654B1B883A2B03D9634B1B885A2BB7
:100E300002D9614B48221A80FB7C9AB2604B1A801F
:100E40003B7E9AB25F4B1A803B7D3B727B7D7B720F
:100E5000BB7DBB72FB7DFB727B7E3B71BB7E7B717E
:100E6000FB7EBB713B7FFB7107F1080307F1380282
:100E70009446184600F0B8F803461A46524B1A80BA
:100E8000514B1A88514B1A80514B00221A804E4BFD
:100E90001B88504A14681846FFF70CFB02460B46A5
:100EA000C4E91423484B1B884A4A14681846FFF7C4
:100EB00001FB02460B46C4E91623464B1C68424B15
:100EC0001B881846FFF7F6FA02460B46204601F04B
:100ED000D5FA404B196836A3D3E90023CDE90023A6
:100EE0004FF000024FF00003084601F06BFB3B1D82
:100EF00007F138029446184600F076F803461A4681
:100F0000354B1A80344B1A88344B1A80344B0022EC
:100F10001A80314B1B88334A14681846FFF7CAFA07
:100F200002460B46C4E914232B4B1B882D4A146838
:100F30001846FFF7BFFA02460B46C4E91623294BB1
:100F40001C68254B1B881846FFF7B4FA02460B466F
:100F5000204601F093FA234B196815A3D3E9002327
:100F6000CDE900234FF000024FF00003084601F0E6
:100F700029FB7B7F3B70BB7F7B70FB7FBB7030238B
:100F8000FB703B4607F138029446184600F02CF8F7
:100F90000346A7F8523000F051F8B7F8523018461F
:100FA00004F0EAFB00BF5C37BD4690BDAFF30080A4
:100FB000000000000070B74004000020248E0008EC
:100FC0000000002002000020AC000020AA00002049
:100FD000501D002010210020B0000020AE00002095
:100FE000081F0020081D002080B487B000AF786083
:100FF000C7F800C00023FB820423FB6000233B6191
:1010000012E0FB8A1A46920013445B00FB823B69A4
:101010007A6813441B789AB2FB8A13449BB2303B24
:10102000FB823B6901333B613A69FB689A42E8DB2A
:10103000FB8A18461C37BD4680BC704780B500AFA0
:10104000214B1B88302B0AD1012204211F4801F0BB
:101050007FFF002208211D4801F07AFF09E00022ED
:1010600004211A4801F074FF01220821174801F0F9
:101070006FFF174B1B88302B0AD101222021134808
:1010800001F066FF00221021104801F061FF09E025
:10109000002220210D4801F05BFF012210210B48A6
:1010A00001F056FF0B4B1A880B4B1B685A630B4B16
:1010B0001A880B4B1B689A630A4B1A880A4B1B68E9
:1010C0001A6400BF80BD00BF00000020000801407E
:1010D00002000020AA000020741C0020AE000020A6
:1010E000701D002004000020C01D002080B500AF4E
:1010F000012210210A4801F02BFF0A2001F020FBF9
:1011000000221021064801F023FF064B1B68DA6815
:10111000044B1B6842F00202DA6000BF80BD00BFD2
:10112000000C0140C01D002080B582B000AF144B00
:101130001B68092B10DD124B1B68DBB21A463B1DE6
:101140001049184607F012FA391D4FF6FF730222B4
:101150000D4803F017FD0FE0094B1B68DBB21A4680
:101160003B460A49184607F001FA39464FF6FF7325
:101170000222054803F006FD00BF0837BD4680BDCA
:101180000C1F0020288E00080C1D00202C8E00084B
:1011900080B582B000AF3B1D62220749184607F0B8
:1011A000E5F9391D4FF6FF730222044803F0EAFC0B
:1011B00000BF0837BD4680BD288E00080C1D0020EA
:1011C00080B582B000AF3B1D63220749184607F087
:1011D000CDF9391D4FF6FF730222044803F0D2FC0B
:1011E00000BF0837BD4680BD288E00080C1D0020BA
:1011F00080B500AF2A4B00221A7001F03FFA00F0D0
:1012000077F800F019FB00F043FA00F04BF900F01A
:10121000ABF800F0E7FA00F099F900F0EBF907F00D
:10122000D9F814221F49204803F03EFD04F094F938
:101230001E4A0221102004F0CDFA03461C4A136016
:10124000FFF7C6FCFFF76CFC1A4A00211A4804F0AD
:10125000E9F90346194A1360194A0021194804F0B4
:10126000E1F90346184A1360184A0021184804F0AF
:10127000D9F90346174A1360174A0021174804F0AA
:10128000D1F90346164A1360164A0021164804F0A5
:10129000C9F90346154A136004F090F9FEE700BF50
:1012A0009C0000200C1E00200C1D0020508F000808
:1012B000201E00209C8E0008851B0008701C00204A
:1012C000C08E0008F11B0008041D0020E48E0008F9
:1012D000E91C0008681D0020088F0008991D0008FF
:1012E0006C1D00202C8F0008A51E0008BC1D0020CE
:1012F00080B590B000AF07F11803282200211846EE
:1013000007F02CF93B1D00221A605A609A60DA60DF
:101310001A610223BB610123BB621023FB6200231D
:101320007B6307F11803184601F074FE0346002B97
:1013300001D000F0CDFD0F237B600023BB600023B4
:10134000FB6000233B6100237B613B1D00211846AD
:1013500002F0E0F80346002B01D000F0B9FD00BF19
:101360004037BD4680BD000080B596B000AF07F1A4
:10137000480300221A605A609A60DA6007F140035D
:1013800000221A605A6007F1240300221A605A6092
:101390009A60DA601A615A619A613B1D202200212D
:1013A000184607F0DBF83D4B3D4A1A603B4BA02244
:1013B0005A603A4B00229A60384B4FF47A72DA60E6
:1013C000364B00221A61354B00225A61334B802282
:1013D0009A61324802F038FA0346002B01D000F03F
:1013E00077FD4FF48053BB6407F1480319462B483F
:1013F00002F0DAFE0346002B01D000F069FD274819
:1014000002F0CAFA0346002B01D000F061FD002370
:101410003B6400237B6407F1400319461F4803F037
:1014200095FA0346002B01D000F052FD60237B6249
:101430000023BB620023FB6200237B630023BB63AA
:101440000023FB6307F124030C221946134802F022
:10145000EDFD0346002B01D000F03AFD00237B6038
:101460000023BB600023FB6000233B6100237B6102
:101470004FF40053BB6100233B623B1D19460748F4
:1014800003F0D0FA0346002B01D000F021FD034801
:1014900000F062FE00BF5837BD4680BDC01D002071
:1014A000002C014080B58CB000AF07F10C03242262
:1014B0000021184607F052F83B1D00221A605A60BE
:1014C000214B4FF080421A601F4B00225A601E4B86
:1014D00000229A601C4B4FF6FF72DA601A4B002212
:1014E0001A61194B00229A610323FB6000233B61C0
:1014F00001237B610023BB610A23FB6100233B6264
:1015000001237B620023BB620A23FB6207F10C0309
:1015100019460D4802F052FB0346002B01D000F0A3
:10152000D7FC00237B600023BB603B1D19460648A7
:1015300003F00CFA0346002B01D000F0C9FC00BFF9
:101540003037BD4680BD00BF241E002080B58CB062
:1015500000AF07F10C0324220021184606F0FEFF1D
:101560003B1D00221A605A60204B214A1A601F4B13
:1015700000225A601D4B00229A601C4B4FF6FF72EE
:10158000DA601A4B00221A61184B00229A61032379
:10159000FB6000233B6101237B610023BB610A23C5
:1015A000FB6100233B6201237B620023BB620A23B1
:1015B000FB6207F10C0319460C4802F0FFFA0346E0
:1015C000002B01D000F084FC00237B600023BB6073
:1015D0003B1D1946054803F0B9F90346002B01D01D
:1015E00000F076FC00BF3037BD4680BD701D002086
:1015F0000004004080B586B000AF07F10803002268
:101600001A605A609A60DA603B4600221A605A609B
:101610001D4B1E4A1A601C4B48225A601A4B00226E
:101620009A60194B4FF6FE72DA60174B00221A616E
:10163000154B00229A61144802F006F90346002B6C
:1016400001D000F045FC4FF48053BB6007F1080364
:1016500019460D4802F0A8FD0346002B01D000F00A
:1016600037FC00233B6000237B603B46194606485D
:1016700003F06CF90346002B01D000F029FC00BFF9
:101680001837BD4680BD00BFBC1C002000080040CC
:1016900080B596B000AF07F1480300221A605A6087
:1016A0009A60DA6007F1400300221A605A6007F17D
:1016B000240300221A605A609A60DA601A615A6143
:1016C0009A613B1D20220021184606F047FF434B3C
:1016D000434A1A60414B00225A60404B00229A60F4
:1016E0003E4B41F61F42DA603C4B00221A613B4BF5
:1016F00000225A61394B00229A61384802F0A4F85E
:101700000346002B01D000F0E3FB4FF48053BB6491
:1017100007F148031946314802F046FD0346002B05
:1017200001D000F0D5FB2D4802F036F90346002B1E
:1017300001D000F0CDFB00233B6400237B6407F164
:1017400040031946254803F001F90346002B01D058
:1017500000F0BEFB60237B620023BB620023FB62C0
:1017600000233B6300237B630023BB630023FB63F5
:1017700007F1240300221946184802F057FC0346DB
:10178000002B01D000F0A4FB07F12403042219462A
:10179000124802F04BFC0346002B01D000F098FBEE
:1017A00000237B600023BB600023FB6000233B61C0
:1017B00000237B614FF40053BB6100233B623B1D60
:1017C0001946064803F02EF90346002B01D000F01D
:1017D0007FFB00BF5837BD4680BD00BF741C002092
:1017E0000034014080B500AF114B124A1A60104B13
:1017F0004FF4E1325A600E4B00229A600C4B0022EB
:10180000DA600B4B00221A61094B0C225A61084B1B
:1018100000229A61064B0022DA61054803F065F95F
:101820000346002B01D000F053FB00BF80BD00BF7A
:101830000C1D00200048004080B588B000AF07F1C3
:10184000100300221A605A609A60DA60414B9B696B
:10185000404A43F0400393613E4B9B6903F04003D1
:10186000FB60FB683B4B9B693A4A43F0040393617E
:10187000384B9B6903F00403BB60BB68354B9B6925
:10188000344A43F010039361324B9B6903F0100319
:101890007B607B682F4B9B692E4A43F00803936162
:1018A0002C4B9B6903F008033B603B6800224FF41C
:1018B000BC61294801F04CFB00223C21274801F083
:1018C00047FB00221021264801F042FB4FF4BC6385
:1018D0003B6101237B610023BB610223FB6107F1B4
:1018E000100319461C4801F09FF93C233B6101237A
:1018F0007B610023BB610323FB6107F110031946E1
:10190000164801F091F94FF400733B61154B7B6170
:101910000023BB6107F1100319460F4801F084F959
:1019200010233B6101237B610023BB610223FB6128
:1019300007F1100319460A4801F076F90022052143
:10194000172000F0F8FF172001F011F800BF203732
:10195000BD4680BD00100240001801400008014053
:10196000000C014000003110B0B590B000AFF8613C
:101970004FF48061364801F003FB012235493648B7
:1019800003F092F9334B1B787C2B18D1334BDB7B64
:10199000202B02D03148FFF753F9314B00221A7047
:1019A0000023FB6307E02D4AFB6B134420221A70CF
:1019B000FB6B0133FB63FB6B132BF4DD44E0254B26
:1019C0001B783F2B03D0264B1B78142B2FD1244B95
:1019D00000221A700023BB6307E0204ABB6B13444C
:1019E00020221A70BB6B0133BB63BB6B132BF4DD7E
:1019F00003E03B461846FFF76BF91A4B1B68002BB8
:101A0000F7DC194B07F124041D460FCD0FC42B68DA
:101A1000237007F1350300221A809A7007F124031E
:101A20001846FFF70DF9FFF7B3F900BF0CE00C4BB8
:101A30001B781A46074B1978084B9954084B1B78AA
:101A40000133DAB2064B1A7000BF4037BD46B0BD55
:101A500000180140A00000200C1D0020541D002093
:101A60009C0000200C1F0020308E000800000000A9
:101A700080B582B000AF0346FB80FB88B3F5007FE2
:101A800064D14FF48061364801F07AFA354B1B7807
:101A9000002B08D1344B1B685B6A344A1360314B0E
:101AA00001221A7052E02F4B1B78012B4ED12E4B86
:101AB0001B685B6A2E4A13602B4B1B6800225A621C
:101AC0002B4B1A68294B1B689A4207D9284B1A6876
:101AD000264B1B68D31A274A13600EE0234B1A6863
:101AE000234B1B689A4208D9214B1A681F4B1B686D
:101AF000D31A03F57A731F4A13601E4B1B681846EE
:101B0000FEF7D8FC14A3D3E90023FEF74DFD0246EF
:101B10000B46104619464FF00002174BFEF744FDE6
:101B200002460B46104619464FF00002134BFEF7D3
:101B300065FE02460B4610461946FEF7CFFF0346E8
:101B4000DAB20F4B1A70074B00221A7000BF083729
:101B5000BD4680BDAFF30080C3F5285C8FC2E53F72
:101B600000180140C0000020BC1C0020B400002070
:101B7000B8000020BC000020000024400080464047
:101B8000C1000020B0B588B000AF7860154B07F1F8
:101B90000C041D460FCD0FC42B68237007F11D03E5
:101BA00000221A809A70FFF729F80346002B11D102
:101BB000FFF7EEF80C4B01221A700C4B1B68002B40
:101BC00002D1FFF7FDFA01E0FFF7E2FA064B00222F
:101BD0001A70E8E707F10C031846FFF731F8FFF732
:101BE000D7F8E0E7308E0008C20000200C1F00206C
:101BF00080B598B000AF7860324801F075FE07F10B
:101C000008033149184606F0B1FC07F108031A46EB
:101C10001E21002006F0ACFB07F108031A4628211C
:101C2000002006F0A5FB07F108031A463221002028
:101C300006F09EFB254B1B7803F1640207F10803B5
:101C40002349184606F092FC07F108031A461E21A4
:101C5000002006F08DFB00F069FD024607F1080345
:101C60001C49184606F082FC07F108031A46282191
:101C7000002006F07DFB184B00221A70FFF736FAA1
:101C8000164B1B78002B01D1FFF74EFA642003F0AE
:101C900073FD0E4B1B7803F1640207F158031049E2
:101CA000184606F063FC07F158014FF6FF73032254
:101CB0000C4802F067FF06F0E9F94FF4C87003F032
:101CC0005BFD9CE7BC1C0020448E0008C100002086
:101CD000588E0008688E0008C0000020C200002056
:101CE000288E00080C1D002080B582B000AF7860FF
:101CF0000021234801F0A8FE0421214801F0A4FEA0
:101D0000204B1B88302B0AD1012204211E4801F0F0
:101D10001FF9002208211C4801F01AF909E00022ED
:101D20000421194801F014F901220821164801F094
:101D30000FF9164B1B88302B0AD1012220211248A3
:101D400001F006F9002210210F4801F001F909E025
:101D5000002220210C4801F0FBF8012210210A4842
:101D600001F0F6F80A4B1A88054B1B685A63094BB9
:101D70001A88034B1B689A63C82003F0FDFCBFE779
:101D8000741C002000000020000801400200002018
:101D9000AA000020AE00002080B58EB000AF7860B1
:101DA0003C213E4801F0ACFF3C213D4801F0A8FF3A
:101DB00000F0BCFC7863394B1B685B6AFB62384BF4
:101DC0001B685B6A3B6300F0B1FC02467B6BD31A75
:101DD000B3F57A7F5ED9314B1B685B6ABB622F4BD0
:101DE0001B681B6803F01003102B10D1BA6AFB6A42
:101DF0009A4204DCFA6ABB6AD31A7B6217E0BB6AB8
:101E0000C3F57F43FF33FA6A13447B620FE0BA6A7B
:101E1000FB6A9A4204DBBA6AFB6AD31A7B6206E069
:101E2000FB6AC3F57F43FF33BA6A13447B621C4BE2
:101E30001B685B6A3B621A4B1B681B6803F010034C
:101E4000102B10D13A6A3B6B9A4204DC3A6B3B6A26
:101E5000D31AFB6117E03B6AC3F57F43FF333A6B4C
:101E60001344FB610FE03A6A3B6B9A4204DB3A6A27
:101E70003B6BD31AFB6106E03B6BC3F57F43FF333B
:101E80003A6A1344FB61064B1B685B6A3B6300F0D4
:101E90004DFC7863642003F06FFC94E7241E00205F
:101EA000701D002080B582B000AF78600C2106481C
:101EB00001F0CAFD054B1A88034B1B681A646420A5
:101EC00003F05AFCF6E700BFC01D0020040000200C
:101ED00080B400AF72B600BFFEE7000080B584B0EA
:101EE00000AF184B9B69174A43F001039361154BF0
:101EF0009B6903F00103BB60BB68124BDB69114AAD
:101F000043F08053D3610F4BDB6903F080537B6058
:101F10007B6800220F216FF0010000F00CFD0A4BDE
:101F20005B68FB60FB6823F0E063FB60FB6843F0E9
:101F30008063FB60044AFB68536000BF1037BD46F6
:101F400080BD00BF001002400000014080B58AB093
:101F500000AF786007F1180300221A605A609A6097
:101F6000DA607B681B682B4A934214D12A4B9B6929
:101F7000294A43F400639361274B9B6903F4006390
:101F80007B617B69002205211B2000F0D4FC1B2013
:101F900000F0EDFC3AE07B681B68204A93420CD1CC
:101FA0001D4BDB691C4A43F00403D3611A4BDB6908
:101FB00003F004033B613B6928E07B681B68184A17
:101FC000934223D1144B9B69134A43F4005393610A
:101FD000114B9B6903F40053FB60FB680E4B9B693C
:101FE0000D4A43F0100393610B4B9B6903F0100300
:101FF000BB60BB68C023BB610223FB6102237B6221
:1020000007F118031946074800F00EFE00BF2837F5
:10201000BD4680BD002C0140001002400008004079
:10202000003401400010014080B58CB000AF7860F2
:1020300007F11C0300221A605A609A60DA607B681C
:102040001B68B3F1804F4FD13E4BDB693D4A43F0F3
:102050000103D3613B4BDB6903F00103BB61BB6947
:10206000384B9B69374A43F004039361354B9B69B6
:1020700003F004037B617B69324B9B69314A43F077
:10208000080393612F4B9B6903F008033B613B6995
:102090004FF40043FB6100233B6200237B6207F1A6
:1020A0001C031946284800F0BFFD0823FB610023EC
:1020B0003B6200237B6207F11C031946234800F0B2
:1020C000B3FD234B5B68FB62FB6A23F44073FB6246
:1020D000FB6A43F0E063FB62FB6A43F48073FB62DC
:1020E0001B4AFB6A536028E07B681B68194A9342CD
:1020F00023D1144BDB69134A43F00203D361114B24
:10210000DB6903F00203FB60FB680E4B9B690D4A21
:1021100043F0040393610B4B9B6903F00403BB6022
:10212000BB68C023FB6100233B6200237B6207F195
:102130001C031946044800F077FD00BF3037BD4648
:1021400080BD00BF0010024000080140000C0140AB
:10215000000001400004004080B588B000AF786006
:1021600007F10C0300221A605A609A60DA607B68FB
:102170001B68194A93422AD1184B9B69174A43F0AE
:1021800040039361154B9B6903F04003BB60BB6840
:102190004FF48043FB6002233B610223BB6107F1E4
:1021A0000C0319460E4800F03FFD0E4B5B68FB61C7
:1021B000FB6923F0C003FB61FB6943F0E063FB6153
:1021C000FB6943F0C003FB61064AFB69536000BF33
:1021D0002037BD4680BD00BF002C014000100240EA
:1021E000001801400000014080B58AB000AF78605F
:1021F00007F1140300221A605A609A60DA607B6863
:102200001B68294A93424BD1284BDB69274A43F488
:102210008023D361254BDB6903F480233B613B6959
:10222000224B9B69214A43F0100393611F4B9B692A
:1022300003F01003FB60FB684FF480637B610223B3
:10224000BB6103233B6207F114031946184800F0F1
:10225000EBFC4FF400637B610023BB610023FB6157
:1022600007F114031946124800F0DEFC114B5B68BD
:102270007B627B6A23F030037B627B6A43F0E0631E
:102280007B627B6A43F010037B620A4A7B6A53607D
:1022900000220521272000F04EFB272000F067FBDD
:1022A00000BF2837BD4680BD0048004000100240F6
:1022B000001001400000014080B400AFFEE780B490
:1022C00000AFFEE780B400AFFEE780B400AFFEE7EA
:1022D00080B400AFFEE780B400AF00BFBD4680BC55
:1022E000704780B500AF00F00FFA04F015FF034609
:1022F000012B01D005F070FC00BF80BD80B500AFA0
:102300004FF4007000F056FE00BF80BD80B500AFF6
:10231000024801F083FD00BF80BD00BFC01D00204A
:1023200080B500AF024802F0EFFC00BF80BD00BFE7
:102330000C1D002080B586B000AF7860144A154BA4
:10234000D31A7B617B693B61134B1B68002B02D165
:10235000114B124A1A60104B1A687B6813443A6991
:102360009A4207D206F0C2F803460C221A604FF0D8
:10237000FF3309E0084B1B68FB60074B1A687B685A
:102380001344054A1360FB6818461837BD4680BDE4
:102390000000012000040000C4000020C825002027
:1023A00080B400AF00BFBD4680BC70470C480D49EB
:1023B0000D4A002302E0D458C4500433C4188C42A0
:1023C000F9D30A4A0A4C002301E013600432A24206
:1023D000FBD3FFF7E5FF06F08FF8FEF709FF704724
:1023E000000000207C000020209A000880000020CF
:1023F000C4250020FEE7000080B588B004AFF86077
:10240000C7E900234FF000021B4BCDE900234FF03A
:1024100000024FF00003F86800F0D4F8F86AFEF705
:1024200049F802460B46F968C1E9182397F82830A5
:102430001946F86800F0E4F8D7E90823CDE902234B
:10244000D7E90623CDE90023D7E90023F86800F097
:1024500025F8F9684FF000024FF00003C1E90C23A2
:10246000F9684FF000024FF00003C1E9162300BFE6
:102470001037BD4680BD00BF00409F4080B485B08E
:1024800000AFF860C7E90023F968D7E90023C1E984
:10249000102300BF1437BD4680BC704780B586B09E
:1024A00000AFF860C7E900234FF000024FF00003CF
:1024B000D7E90001FEF7EAFA0346002B7BD14FF083
:1024C00000024FF00003D7E90801FEF7DFFA0346E8
:1024D000002B70D14FF000024FF00003D7E90A0142
:1024E000FEF7D4FA0346002B65D1F968D7E900233B
:1024F000C1E90623F968D7E90823C1E90823F96887
:10250000D7E90A23C1E90A23FB68D3E918014FF090
:1025100000022B4BFEF772F902460B46C7E9042373
:10252000F968D7E90023C1E90023D7E90423D7E9F3
:102530000801FEF739F802460B46F968C1E90223A3
:10254000D7E90423D7E90A01FEF758F902460B46FA
:10255000F968C1E90423FB6893F89030012B2BD173
:10256000FB68D3E900234FF000004FF00001FDF7B6
:1025700063FE02460B46F968C1E90023FB68D3E914
:1025800002234FF000004FF00001FDF755FE024618
:102590000B46F968C1E90223FB68D3E904234FF035
:1025A00000004FF00001FDF747FE02460B46F968B8
:1025B000C1E9042300E000BF1837BD4680BD00BF5D
:1025C00000408F4080B584B000AFF860C7E90023B9
:1025D000D7E90623D7E90001FEF76CFA0346002B82
:1025E0000AD1F968D7E90023C1E92023F968D7E9BE
:1025F0000623C1E9222300E000BF1037BD4680BD9D
:1026000080B582B000AF78600B46FB707B6893F8B2
:102610009030FA789A4229D07B68D3E900234FF0B2
:1026200000004FF00001FDF707FE02460B467968F7
:10263000C1E900237B68D3E902234FF000004FF08B
:102640000001FDF7F9FD02460B467968C1E9022356
:102650007B68D3E904234FF000004FF00001FDF741
:10266000EBFD02460B467968C1E904237B68FA78E2
:1026700083F8902000BF0837BD4680BD80B500AF0D
:10268000084B1B68074A43F010031360032000F057
:1026900047F90F2000F008F8FFF720FC0023184648
:1026A00080BD00BF0020024080B582B000AF7860DE
:1026B000124B1A68124B1B7819464FF47A73B3FB0E
:1026C000F1F3B2FBF3F3184600F05FF90346002B79
:1026D00001D001230EE07B680F2B0AD80022796815
:1026E0004FF0FF3000F027F9064A7B6813600023A3
:1026F00000E0012318460837BD4680BD08000020D1
:10270000100000200C00002080B400AF054B1B78A7
:102710001A46054B1B681344034A136000BFBD46AD
:1027200080BC7047100000207021002080B400AFF2
:10273000024B1B681846BD4680BC704770210020C4
:1027400080B584B000AF7860FFF7F0FFB8607B68B9
:10275000FB60FB68B3F1FF3F05D00A4B1B781A46BC
:10276000FB681344FB6000BFFFF7E0FF0246BB6855
:10277000D31AFA689A42F7D800BF00BF1037BD4697
:1027800080BD00BF1000002080B485B000AF78602D
:102790007B6803F00703FB600C4BDB68BB60BA6827
:1027A0004FF6FF031340BB60FB681A02BB6813437C
:1027B00043F0BF6343F40033BB60044ABB68D3609B
:1027C00000BF1437BD4680BC704700BF00ED00E07D
:1027D00080B400AF044BDB681B0A03F00703184604
:1027E000BD4680BC704700BF00ED00E080B483B000
:1027F00000AF0346FB7197F90730002B0BDBFB7929
:1028000003F01F02064997F907305B09012000FA1F
:1028100002F241F8232000BF0C37BD4680BC704750
:1028200000E100E080B483B000AF03463960FB7183
:1028300097F90730002B0ADB3B68DAB20C4997F9AD
:1028400007301201D2B20B4483F800230AE03B6840
:10285000DAB20849FB7903F00F03043B1201D2B24C
:102860000B441A7600BF0C37BD4680BC704700BFD2
:1028700000E100E000ED00E080B489B000AFF86056
:10288000B9607A60FB6803F00703FB61FB69C3F181
:102890000703042B28BF0423BB61FB690433062B09
:1028A00002D9FB69033B00E000237B614FF0FF325C
:1028B000BB6902FA03F3DA43BB681A407B699A40AA
:1028C0004FF0FF317B6901FA03F3D9437B680B407A
:1028D000134318462437BD4680BC704780B582B08C
:1028E00000AF78607B68013BB3F1807F01D30123A7
:1028F0000FE00A4A7B68013B53600F214FF0FF3025
:10290000FFF790FF054B00229A60044B07221A60E4
:10291000002318460837BD4680BD00BF10E000E028
:1029200080B582B000AF78607868FFF72DFF00BFF8
:102930000837BD4680BD80B586B000AF0346B9609C
:102940007A60FB7300237B61FFF742FF78617A684E
:10295000B9687869FFF790FF024697F90F30114682
:102960001846FFF75FFF00BF1837BD4680BD80B532
:1029700082B000AF0346FB7197F907301846FFF7A6
:1029800035FF00BF0837BD4680BD80B582B000AFBF
:1029900078607868FFF7A2FF034618460837BD46FF
:1029A00080BD80B485B000AF78600023FB737B6886
:1029B00093F82130022B08D07B6804229A637B684D
:1029C000002283F82020012320E07B681B681A681E
:1029D0007B681B6822F00E021A607B681B681A680D
:1029E0007B681B6822F001021A607B681A6C7B68A6
:1029F000DB6B012101FA02F25A607B68012283F845
:102A000021207B68002283F82020FB7B18461437A6
:102A1000BD4680BC7047000080B584B000AF7860D0
:102A20000023FB737B6893F82130022B05D07B6871
:102A300004229A630123FB73D6E07B681B681A6843
:102A40007B681B6822F00E021A607B681B681A689C
:102A50007B681B6822F001021A607B681B681A46BB
:102A6000644B9A4258D97B681B68634A93424FD0A3
:102A70007B681B68614A934248D07B681B68604A48
:102A8000934240D07B681B685E4A934238D07B6893
:102A90001B685D4A934230D07B681B685B4A934257
:102AA00028D07B681B68534A934220D07B681B6800
:102AB000574A934219D07B681B68564A934212D0FA
:102AC0007B681B68544A93420AD07B681B68534A50
:102AD000934202D14FF480531BE04FF4803318E04F
:102AE0004FF4807315E0102313E0012311E04FF041
:102AF00080730EE04FF480130BE04FF4803308E056
:102B00004FF4805305E04FF4807302E0102300E09F
:102B10000123434A536057E07B681B68364A93425F
:102B20004FD07B681B68354A934248D07B681B684E
:102B3000334A934240D07B681B68324A934238D074
:102B40007B681B68304A934230D07B681B682F4AF1
:102B5000934228D07B681B68264A934220D07B682A
:102B60001B682B4A934219D07B681B68294A934201
:102B700012D07B681B68284A93420AD07B681B6886
:102B8000264A934202D14FF480531BE04FF4803326
:102B900018E04FF4807315E0102313E0012311E0D7
:102BA0004FF080730EE04FF480130BE04FF480334E
:102BB00008E04FF4805305E04FF4807302E01023E7
:102BC00000E00123174A53607B68012283F821202B
:102BD0007B68002283F820207B685B6B002B03D08E
:102BE0007B685B6B78689847FB7B18461037BD465F
:102BF00080BD00BF80000240080002401C0002406F
:102C00003000024044000240580002406C00024084
:102C1000080402401C040240300402404404024004
:102C2000000402400000024080B48BB000AF786026
:102C3000396000237B6200233B6279E101227B6AD9
:102C400002FA03F3FB613B681B68FA691340BB613E
:102C5000BA69FB699A4240F068813B685B68A04AA8
:102C600093425ED09E4A934275D89E4A934258D072
:102C70009C4A93426FD89C4A934252D09A4A9342BC
:102C800069D89A4A93424CD0984A934263D8984A5A
:102C9000934246D0964A93425DD8122B2AD8122BE3
:102CA00059D801A252F823F0232D0008FD2C00086A
:102CB0000F2D0008512D0008572D0008572D000832
:102CC000572D0008572D0008572D0008572D0008D4
:102CD000572D0008572D0008572D0008572D0008C4
:102CE000572D0008572D0008572D0008052D000806
:102CF000192D00087F4A934213D02CE03B68DB6813
:102D00003B6229E03B68DB6804333B6224E03B68BC
:102D1000DB6808333B621FE03B68DB680C333B62D7
:102D20001AE03B689B68002B02D104233B6213E04E
:102D30003B689B68012B05D108233B627B68FA69DD
:102D40001A6109E008233B627B68FA695A6103E073
:102D500000233B6200E000BFBB69FF2B01D87B680A
:102D600001E07B6804337B61BB69FF2B02D87B6A7F
:102D70009B0002E07B6A083B9B003B617B691A6811
:102D80000F213B6901FA03F3DB431A40396A3B69BF
:102D900001FA03F31A437B691A603B685B6803F02E
:102DA0008053002B00F0C180534B9B69524A43F083
:102DB00001039361504B9B6903F00103BB60BB6847
:102DC0004E4A7B6A9B08023352F82330FB607B6AD1
:102DD00003F003039B000F2202FA03F3DB43FA68BC
:102DE0001340FB607B68464A93421FD07B68454A8C
:102DF000934219D07B68444A934213D07B68434A7C
:102E000093420DD07B68424A934207D07B68414A87
:102E1000934201D105230AE0062308E0042306E0DB
:102E2000032304E0022302E0012300E000237A6A86
:102E300002F0030292009340FA681343FB602F49AB
:102E40007B6A9B080233FA6841F823203B685B6881
:102E500003F48033002B06D02F4B1A682E49BB6930
:102E600013430B6006E02C4B1A68BB69DB432A490D
:102E700013400B603B685B6803F40033002B06D003
:102E8000254B5A682449BB6913434B6006E0224B2B
:102E90005A68BB69DB43204913404B603B685B6861
:102EA00003F48013002B06D01B4B9A681A49BB69A8
:102EB00013438B6006E0184B9A68BB69DB431649E5
:102EC00013408B603B685B6803F40013002B25D034
:102ED000114BDA681049BB691343CB6025E000BF92
:102EE00000003210000031100000221000002110FC
:102EF00000001210000011100010024000000140FC
:102F000000080140000C0140001001400014014085
:102F100000180140001C0140000401400B4BDA681E
:102F2000BB69DB4309491340CB607B6A01337B6299
:102F30003B681A687B6A22FA03F3002B7FF47EAEAB
:102F400000BF00BF2C37BD4680BC70470004014065
:102F500080B483B000AF78600B467B8013467B70F3
:102F60007B78002B03D07A887B681A6103E07B882A
:102F70001A047B681A6100BF0C37BD4680BC7047DD
:102F800080B485B000AF78600B467B807B68DB68DF
:102F9000FB607A88FB6813401A04FB68D9437B887E
:102FA0000B401A437B681A6100BF1437BD4680BCD2
:102FB0007047000080B582B000AF0346FB80084B2D
:102FC0005A69FB881340002B06D0054AFB885361E1
:102FD000FB881846FEF74CFD00BF0837BD4680BD94
:102FE0000004014080B400AF034B01221A6000BF0F
:102FF000BD4680BC704700BF20000E4280B400AFC9
:10300000034B00221A6000BFBD4680BC704700BF62
:1030100020000E4280B586B000AF78607B68002B40
:1030200001D101236CE27B681B6803F00103002BD4
:1030300000F08780924B5B6803F00C03042B0CD0EC
:103040008F4B5B6803F00C03082B12D18C4B5B6831
:1030500003F48033B3F5803F0BD1894B1B6803F435
:103060000033002B6CD07B685B68002B68D1012398
:1030700046E27B685B68B3F5803F06D1804B1B68F6
:103080007F4A43F4803313602EE07B685B68002B3B
:103090000CD17B4B1B687A4A23F480331360784B46
:1030A0001B68774A23F4802313601DE07B685B680C
:1030B000B3F5A02F0CD1724B1B68714A43F48023E7
:1030C00013606F4B1B686E4A43F4803313600BE050
:1030D0006B4B1B686A4A23F480331360684B1B6890
:1030E000674A23F4802313607B685B68002B13D04E
:1030F000FFF71CFB386108E0FFF718FB02463B694D
:10310000D31A642B01D90323FAE15D4B1B6803F446
:103110000033002BF0D014E0FFF708FB386108E023
:10312000FFF704FB02463B69D31A642B01D9032342
:10313000E6E1534B1B6803F40033002BF0D100E0B1
:1031400000BF7B681B6803F00203002B63D04C4B6D
:103150005B6803F00C03002B0BD0494B5B6803F05A
:103160000C03082B1CD1464B5B6803F48033002B07
:1031700016D1434B1B6803F00203002B05D07B687C
:103180001B69012B01D00123BAE13D4B1B6823F0E1
:10319000F8027B685B69DB00394913430B603AE056
:1031A0007B681B69002B20D0364B01221A60FFF789
:1031B000BDFA386108E0FFF7B9FA02463B69D31A55
:1031C000022B01D903239BE12D4B1B6803F0020363
:1031D000002BF0D02A4B1B6823F0F8027B685B6958
:1031E000DB00274913430B6015E0264B00221A60D1
:1031F000FFF79CFA386108E0FFF798FA02463B694E
:10320000D31A022B01D903237AE11D4B1B6803F06B
:103210000203002BF0D17B681B6803F00803002B2E
:103220003AD07B689B69002B19D0174B01221A609A
:10323000FFF77CFA386108E0FFF778FA02463B694D
:10324000D31A022B01D903235AE10D4B5B6A03F019
:103250000203002BF0D0012000F0D8FA1CE00A4B4A
:1032600000221A60FFF762FA38610FE0FFF75EFA9A
:1032700002463B69D31A022B08D9032340E100BF61
:103280000010024000004242800442429E4B5B6AB2
:1032900003F00203002BE9D17B681B6803F00403F1
:1032A000002B00F0A6800023FB75974BDB6903F031
:1032B0008053002B0DD1944BDB69934A43F080532C
:1032C000D361914BDB6903F08053BB60BB68012382
:1032D000FB758E4B1B6803F48073002B18D18B4B4E
:1032E0001B688A4A43F480731360FFF71FFA386142
:1032F00008E0FFF71BFA02463B69D31A642B01D999
:103300000323FDE0814B1B6803F48073002BF0D096
:103310007B68DB68012B06D17B4B1B6A7A4A43F042
:10332000010313622DE07B68DB68002B0CD1764B28
:103330001B6A754A23F001031362734B1B6A724ABE
:1033400023F0040313621CE07B68DB68052B0CD1BF
:103350006D4B1B6A6C4A43F0040313626A4B1B6A91
:10336000694A43F0010313620BE0674B1B6A664A2C
:1033700023F001031362644B1B6A634A23F00403C6
:1033800013627B68DB68002B15D0FFF7CFF938613B
:103390000AE0FFF7CBF902463B69D31A41F28832C3
:1033A000934201D90323ABE0574B1B6A03F002039E
:1033B000002BEED014E0FFF7B9F938610AE0FFF70F
:1033C000B5F902463B69D31A41F28832934201D9DA
:1033D000032395E04C4B1B6A03F00203002BEED154
:1033E000FB7D012B05D1484BDB69474A23F0805315
:1033F000D3617B68DB69002B00F08180424B5B6806
:1034000003F00C03082B61D07B68DB69022B46D1EB
:103410003F4B00221A60FFF789F9386108E0FFF797
:1034200085F902463B69D31A022B01D9032367E0D1
:10343000354B1B6803F00073002BF0D17B681B6ACF
:10344000B3F5803F08D1304B5B6823F400327B68D2
:103450009B682D4913434B602B4B5B6823F474121C
:103460007B68196A7B685B6A0B43274913434B608F
:10347000274B01221A60FFF759F9386108E0FFF77E
:1034800055F902463B69D31A022B01D9032337E0D1
:103490001D4B1B6803F00073002BF0D02FE01C4B7A
:1034A00000221A60FFF742F9386108E0FFF73EF9A1
:1034B00002463B69D31A022B01D9032320E0124BA9
:1034C0001B6803F00073002BF0D118E07B68DB6908
:1034D000012B01D1012313E00B4B5B68FB60FB6800
:1034E00003F480327B681B6A9A4206D1FB6803F4BE
:1034F00070127B685B6A9A4201D0012300E00023CE
:1035000018461837BD4680BD0010024000700040CC
:103510006000424280B584B000AF786039607B685B
:10352000002B01D10123D0E06A4B1B6803F0070395
:103530003A689A4210D9674B1B6823F00702654925
:103540003B6813430B60634B1B6803F007033A6847
:103550009A4201D00123B8E07B681B6803F00203A4
:10356000002B20D07B681B6803F00403002B05D0E0
:10357000594B5B68584A43F4E06353607B681B68AF
:1035800003F00803002B05D0534B5B68524A43F409
:1035900060535360504B5B6823F0F0027B689B687C
:1035A0004D4913434B607B681B6803F00103002BFC
:1035B00040D07B685B68012B07D1474B1B6803F445
:1035C0000033002B15D101237FE07B685B68022B61
:1035D00007D1414B1B6803F00073002B09D1012375
:1035E00073E03D4B1B6803F00203002B01D1012364
:1035F0006BE0394B5B6823F003027B685B683649FC
:1036000013434B60FFF792F8F8600AE0FFF78EF87B
:103610000246FB68D31A41F28832934201D9032350
:1036200053E02D4B5B6803F00C027B685B689B00EA
:103630009A42EBD1274B1B6803F007033A689A4282
:1036400010D2244B1B6823F0070222493B68134326
:103650000B60204B1B6803F007033A689A4201D0C5
:10366000012332E07B681B6803F00403002B08D0C1
:10367000194B5B6823F4E0627B68DB6816491343EF
:103680004B607B681B6803F00803002B09D0124BCA
:103690005B6823F460527B681B69DB000E491343AF
:1036A0004B6000F021F802460B4B5B681B0903F0EE
:1036B0000F030A49CB5C22FA03F3094A1360094B52
:1036C0001B681846FEF7F0FF002318461037BD466A
:1036D00080BD00BF0020024000100240688F00083B
:1036E000080000200C00002090B48AB000AF2A4BE4
:1036F0003C1D0FCB84E80F0040F201233B800023E8
:10370000FB610023BB6100237B6200237B610023FC
:103710003B62224B5B68FB61FB6903F00C03042BEB
:1037200002D0082B03D02DE01D4B3B622DE0FB693E
:103730009B0C03F00F0307F12802134413F8243CF9
:103740007B61FB6903F48033002B13D0134B5B6860
:103750005B0C03F0010307F12802134413F8283C23
:10376000BB617B690E4A02FB03F2BB69B2FBF3F358
:103770007B6204E07B690B4A02FB03F37B627B6A9A
:103780003B6202E0064B3B6200BF3B6A18462837AB
:10379000BD4690BC704700BF748E00080010024008
:1037A00000127A0000093D0080B400AF024B1B6894
:1037B0001846BD4680BC70470800002080B500AFA9
:1037C000FFF7F2FF0246054B5B681B0A03F0070395
:1037D0000349CB5C22FA03F3184680BD0010024077
:1037E000788F000880B500AFFFF7DEFF0246054B7B
:1037F0005B68DB0A03F007030349CB5C22FA03F39F
:10380000184680BD00100240788F000880B485B053
:1038100000AF78600A4B1B680A4AA2FB03235B0ACD
:103820007A6802FB03F3FB6000BFFB685A1EFA6074
:10383000002BF9D100BF00BF1437BD4680BC7047D4
:1038400008000020D34D621080B582B000AF7860D0
:103850007B68002B01D1012341E07B6893F83D3068
:10386000DBB2002B06D17B68002283F83C2078680D
:10387000FEF76CFB7B68022283F83D207B681A68A8
:103880007B6804331946104600F080FD7B680122F6
:1038900083F846207B68012283F83E207B68012262
:1038A00083F83F207B68012283F840207B68012257
:1038B00083F841207B68012283F842207B68012243
:1038C00083F843207B68012283F844207B6801222F
:1038D00083F845207B68012283F83D2000231846A9
:1038E0000837BD4680BD000080B485B000AF786069
:1038F0007B6893F83D30DBB2012B01D001233CE023
:103900007B68022283F83D207B681B681D4A934236
:1039100018D07B681B681C4A934213D07B681B68D5
:10392000B3F1804F0ED07B681B68184A934209D0D0
:103930007B681B68164A934204D07B681B68154A53
:10394000934211D17B681B689B6803F00703FB60FF
:10395000FB68062B10D07B681B681A687B681B68A5
:1039600042F001021A6007E07B681B681A687B68F6
:103970001B6842F001021A60002318461437BD4646
:1039800080BC7047002C014000340140000400401E
:1039900000080040000C004080B582B000AF7860A5
:1039A0007B68002B01D1012341E07B6893F83D3017
:1039B000DBB2002B06D17B68002283F83C207868BC
:1039C00000F039F87B68022283F83D207B681A6892
:1039D0007B6804331946104600F0D8FC7B6801224E
:1039E00083F846207B68012283F83E207B68012211
:1039F00083F83F207B68012283F840207B68012206
:103A000083F841207B68012283F842207B680122F1
:103A100083F843207B68012283F844207B680122DD
:103A200083F845207B68012283F83D200023184657
:103A30000837BD4680BD80B483B000AF786000BF5A
:103A40000C37BD4680BC704780B584B000AF78604D
:103A500039603B68002B09D17B6893F83E30DBB2BC
:103A6000012B14BF01230023DBB222E03B68042BAF
:103A700009D17B6893F83F30DBB2012B14BF0123DF
:103A80000023DBB215E03B68082B09D17B6893F873
:103A90004030DBB2012B14BF01230023DBB208E06E
:103AA0007B6893F84130DBB2012B14BF0123002364
:103AB000DBB2002B01D0012372E03B68002B04D164
:103AC0007B68022283F83E2013E03B68042B04D17C
:103AD0007B68022283F83F200BE03B68082B04D16F
:103AE0007B68022283F8402003E07B68022283F88F
:103AF00041207B681B6801223968184600F002FFEC
:103B00007B681B68284A934204D07B681B68274A5D
:103B1000934201D1012300E00023002B07D07B68F2
:103B20001B685A6C7B681B6842F400425A647B68CD
:103B30001B681D4A934218D07B681B681B4A93423E
:103B400013D07B681B68B3F1804F0ED07B681B6875
:103B5000174A934209D07B681B68164A934204D0E7
:103B60007B681B68144A934211D17B681B689B6871
:103B700003F00703FB60FB68062B10D07B681B6813
:103B80001A687B681B6842F001021A6007E07B68D4
:103B90001B681A687B681B6842F001021A600023E8
:103BA00018461037BD4680BD002C0140003401404E
:103BB0000004004000080040000C004080B586B0C2
:103BC00000AF786039607B68002B01D1012393E05E
:103BD0007B6893F83D30DBB2002B06D17B68002276
:103BE00083F83C207868FEF71FFA7B68022283F88E
:103BF0003D207B681B689B687A68126823F48043C9
:103C000023F0070393607B681A687B6804331946C6
:103C1000104600F0BBFB7B681B689B687B617B6880
:103C20001B689B693B617B681B681B6AFB603B6888
:103C30001B687A6913437B613B6923F4407323F06B
:103C400003033B613B689A683B689B691B02134313
:103C50003A6913433B613B6923F4406323F00C034F
:103C60003B613B6923F4704323F0F0033B613B6805
:103C7000DA683B68DB691B0213433A6913433B6113
:103C80003B681B691A013B681B6A1B0313433A69B3
:103C900013433B61FB6823F02203FB603B685A68D7
:103CA0003B685B691B011343FA681343FB607B6845
:103CB0001B687A699A607B681B683A699A617B68BD
:103CC0001B68FA681A627B68012283F846207B68C9
:103CD000012283F83E207B68012283F83F207B6825
:103CE000012283F842207B68012283F843207B680D
:103CF000012283F83D20002318461837BD4680BDB9
:103D000080B584B000AF786039607B6893F83E304E
:103D1000FB737B6893F83F30BB737B6893F842304A
:103D20007B737B6893F843303B733B68002B10D167
:103D3000FB7B012B02D17B7B012B01D0012369E0AE
:103D40007B68022283F83E207B68022283F84220AF
:103D500031E03B68042B10D1BB7B012B02D13B7BB4
:103D6000012B01D0012355E07B68022283F83F201C
:103D70007B68022283F843201DE0FB7B012B08D1E6
:103D8000BB7B012B05D17B7B012B02D13B7B012B24
:103D900001D001233EE07B68022283F83E207B684D
:103DA000022283F83F207B68022283F842207B684E
:103DB000022283F843203B68002B03D03B68042B8E
:103DC00008D00FE07B681B6801220021184600F034
:103DD00099FD16E07B681B6801220421184600F05B
:103DE00091FD0EE07B681B6801220021184600F05F
:103DF00089FD7B681B6801220421184600F082FDC2
:103E000000BF7B681B681A687B681B6842F0010270
:103E10001A60002318461037BD4680BD80B582B0B9
:103E200000AF78607B681B681B6903F00203022BFC
:103E300022D17B681B68DB6803F00203022B1BD1D5
:103E40007B681B686FF002021A617B6801221A7797
:103E50007B681B689B6903F00303002B03D0786821
:103E600000F078FA05E0786800F06BFA786800F006
:103E70007AFA7B6800221A777B681B681B6903F05B
:103E80000403042B22D17B681B68DB6803F0040366
:103E9000042B1BD17B681B686FF004021A617B68DE
:103EA00002221A777B681B689B6903F44073002B1E
:103EB00003D0786800F04EFA05E0786800F041FA27
:103EC000786800F050FA7B6800221A777B681B68DC
:103ED0001B6903F00803082B22D17B681B68DB6891
:103EE00003F00803082B1BD17B681B686FF00802E6
:103EF0001A617B6804221A777B681B68DB6903F010
:103F00000303002B03D0786800F024FA05E07868FA
:103F100000F017FA786800F026FA7B6800221A771A
:103F20007B681B681B6903F01003102B22D17B6890
:103F30001B68DB6803F01003102B1BD17B681B6828
:103F40006FF010021A617B6808221A777B681B6881
:103F5000DB6903F44073002B03D0786800F0FAF9B2
:103F600005E0786800F0EDF9786800F0FCF97B680E
:103F700000221A777B681B681B6903F00103012B81
:103F80000ED17B681B68DB6803F00103012B07D1AE
:103F90007B681B686FF001021A61786800F0C8F94D
:103FA0007B681B681B6903F08003802B0ED17B6844
:103FB0001B68DB6803F08003802B07D17B681B68DC
:103FC0006FF080021A61786800F086FD7B681B68DC
:103FD0001B6903F04003402B0ED17B681B68DB6834
:103FE00003F04003402B07D17B681B686FF0400251
:103FF0001A61786800F0C0F97B681B681B6903F0E0
:104000002003202B0ED17B681B68DB6803F02003A4
:10401000202B07D17B681B686FF020021A6178683B
:1040200000F051FD00BF0837BD4680BD80B584B0AB
:1040300000AFF860B9607A60FB6893F83C30012B00
:1040400001D10223ACE0FB68012283F83C207B68AD
:104050000C2B00F29F8001A252F823F0914000083F
:10406000954100089541000895410008D14000089D
:10407000954100089541000895410008134100084A
:1040800095410008954100089541000853410008FA
:10409000FB681B68B968184600F0F2F9FB681B68FA
:1040A0009A69FB681B6842F008029A61FB681B680A
:1040B0009A69FB681B6822F004029A61FB681B681E
:1040C0009969BB681A69FB681B680A439A6162E0D8
:1040D000FB681B68B968184600F042FAFB681B6869
:1040E0009A69FB681B6842F400629A61FB681B686E
:1040F0009A69FB681B6822F480629A61FB681B68FE
:104100009969BB681B691A02FB681B680A439A61BC
:1041100041E0FB681B68B968184600F095FAFB6837
:104120001B68DA69FB681B6842F00802DA61FB6809
:104130001B68DA69FB681B6822F00402DA61FB681D
:104140001B68D969BB681A69FB681B680A43DA6196
:1041500021E0FB681B68B968184600F0E9FAFB68C3
:104160001B68DA69FB681B6842F40062DA61FB686D
:104170001B68DA69FB681B6822F48062DA61FB68FD
:104180001B68D969BB681B691A02FB681B680A4374
:10419000DA6100E000BFFB68002283F83C200023C6
:1041A00018461037BD4680BD80B584B000AF78603A
:1041B00039607B6893F83C30012B01D10223B3E0D6
:1041C0007B68012283F83C207B68022283F83D2033
:1041D0007B681B689B68FB60FB6823F07703FB60D0
:1041E000FB6823F47F43FB607B681B68FA689A6076
:1041F0003B681B68B3F5005F3ED0B3F5005F00F28B
:104200008780B3F5805F00F08580B3F5805F7FD84D
:10421000702B1AD0702B7BD8602B50D0602B77D8A6
:10422000502B3CD0502B73D8402B58D0402B6FD8FC
:10423000302B64D0302B6BD8202B60D0202B67D84C
:10424000002B5CD0102B5AD062E07B6818683B686A
:1042500099683B685A683B68DB6800F034FB7B6810
:104260001B689B68FB60FB6843F07703FB607B681F
:104270001B68FA689A604EE07B6818683B6899682A
:104280003B685A683B68DB6800F01DFB7B681B6875
:104290009A687B681B6842F480429A603BE07B68C6
:1042A00018683B6859683B68DB681A4600F094FA66
:1042B0007B681B685021184600F0EBFA2BE07B6806
:1042C00018683B6859683B68DB681A4600F0B2FA28
:1042D0007B681B686021184600F0DBFA1BE07B68F6
:1042E00018683B6859683B68DB681A4600F074FA46
:1042F0007B681B684021184600F0CBFA0BE07B6816
:104300001A683B681B681946104600F0C2FA02E0C2
:1043100000BF00E000BF7B68012283F83D207B687E
:10432000002283F83C20002318461037BD4680BD8C
:1043300080B483B000AF786000BF0C37BD4680BC4E
:10434000704780B483B000AF786000BF0C37BD46C3
:1043500080BC704780B483B000AF786000BF0C377A
:10436000BD4680BC704780B483B000AF786000BFAA
:104370000C37BD4680BC704780B483B000AF786016
:1043800000BF0C37BD4680BC7047000080B485B0CC
:1043900000AF786039607B681B68FB607B68334ADC
:1043A000934213D07B68324A93420FD07B68B3F1BB
:1043B000804F0BD07B682F4A934207D07B682E4AF0
:1043C000934203D07B682D4A934208D1FB6823F0C7
:1043D0007003FB603B685B68FA681343FB607B68B3
:1043E000224A934213D07B68214A93420FD07B68C4
:1043F000B3F1804F0BD07B681E4A934207D07B6895
:104400001D4A934203D07B681C4A934208D1FB6843
:1044100023F44073FB603B68DB68FA681343FB607E
:10442000FB6823F080023B685B691343FB607B6899
:10443000FA681A603B689A687B68DA623B681A68B7
:104440007B689A627B68094A934203D07B68084A7A
:10445000934203D13B681A697B681A637B68012227
:104460005A6100BF1437BD4680BC7047002C014024
:10447000003401400004004000080040000C0040EF
:1044800080B487B000AF786039607B681B6A23F026
:1044900001027B681A627B681B6A7B617B685B68D0
:1044A0003B617B689B69FB60FB6823F07003FB60EA
:1044B000FB6823F00303FB603B681B68FA68134347
:1044C000FB607B6923F002037B613B689B687A6930
:1044D00013437B617B68204A934203D07B681F4A69
:1044E00093420CD17B6923F008037B613B68DB6856
:1044F0007A6913437B617B6923F004037B617B68EA
:10450000154A934203D07B68144A934211D13B6908
:1045100023F480733B613B6923F400733B613B6888
:104520005B693A6913433B613B689B693A69134392
:104530003B617B683A695A607B68FA689A613B68BC
:104540005A687B685A637B687A691A6200BF1C37B5
:10455000BD4680BC704700BF002C014000340140C4
:1045600080B487B000AF786039607B681B6A23F045
:1045700010027B681A627B681B6A7B617B685B68E0
:104580003B617B689B69FB60FB6823F4E043FB6055
:10459000FB6823F44073FB603B681B681B02FA68EE
:1045A0001343FB607B6923F020037B613B689B68BE
:1045B0001B017A6913437B617B68214A934203D0D4
:1045C0007B68204A93420DD17B6923F080037B6195
:1045D0003B68DB681B017A6913437B617B6923F0CD
:1045E00040037B617B68164A934203D07B68154A7F
:1045F000934213D13B6923F480633B613B6923F40D
:1046000000633B613B685B699B003A6913433B6114
:104610003B689B699B003A6913433B617B683A693D
:104620005A607B68FA689A613B685A687B689A634B
:104630007B687A691A6200BF1C37BD4680BC704730
:10464000002C01400034014080B487B000AF786096
:1046500039607B681B6A23F480727B681A627B680E
:104660001B6A7B617B685B683B617B68DB69FB6025
:10467000FB6823F07003FB60FB6823F00303FB601F
:104680003B681B68FA681343FB607B6923F4007383
:104690007B613B689B681B027A6913437B617B6883
:1046A000214A934203D07B68204A93420DD17B6913
:1046B00023F400637B613B68DB681B027A69134368
:1046C0007B617B6923F480637B617B68164A93423C
:1046D00003D07B68154A934213D13B6923F480537E
:1046E0003B613B6923F400533B613B685B691B0101
:1046F0003A6913433B613B689B691B013A69134369
:104700003B617B683A695A607B68FA68DA613B68AA
:104710005A687B68DA637B687A691A6200BF1C3763
:10472000BD4680BC704700BF002C014000340140F2
:1047300080B487B000AF786039607B681B6A23F46F
:1047400080527B681A627B681B6A3B617B685B688E
:104750007B617B68DB69FB60FB6823F4E043FB6003
:10476000FB6823F44073FB603B681B681B02FA681C
:104770001343FB603B6923F400533B613B689B6838
:104780001B033A6913433B617B68114A934203D090
:104790007B68104A934209D17B6923F480437B6193
:1047A0003B685B699B017A6913437B617B687A692B
:1047B0005A607B68FA68DA613B685A687B681A64F9
:1047C0007B683A691A6200BF1C37BD4680BC7047DF
:1047D000002C01400034014080B487B000AFF86085
:1047E000B9607A60FB681B6A7B61FB681B6A23F017
:1047F0000102FB681A62FB689B693B613B6923F01D
:10480000F0033B617B681B013A6913433B617B69A1
:1048100023F00A037B617A69BB6813437B61FB6801
:104820003A699A61FB687A691A6200BF1C37BD4613
:1048300080BC704780B487B000AFF860B9607A6020
:10484000FB681B6A23F01002FB681A62FB689B6915
:104850007B61FB681B6A3B617B6923F470437B616E
:104860007B681B037A6913437B613B6923F0A003D8
:104870003B61BB681B013A6913433B61FB687A6982
:104880009A61FB683A691A6200BF1C37BD4680BC5A
:10489000704780B485B000AF786039607B689B68F2
:1048A000FB60FB6823F07003FB603A68FB6813430E
:1048B00043F00703FB607B68FA689A6000BF143717
:1048C000BD4680BC704780B487B000AFF860B96067
:1048D0007A603B60FB689B687B617B6923F47F4364
:1048E0007B613B681A027B681A43BB6813437A6991
:1048F00013437B61FB687A699A6000BF1C37BD4631
:1049000080BC704780B487B000AFF860B9607A604F
:10491000BB6803F01F03012202FA03F37B61FB680B
:104920001A6A7B69DB431A40FB681A62FB681A6AE1
:10493000BB6803F01F03796801FA03F31A43FB68AD
:104940001A6200BF1C37BD4680BC704780B485B07A
:1049500000AF786039607B6893F83C30012B01D15F
:10496000022350E07B68012283F83C207B6802220E
:1049700083F83D207B681B685B68FB607B681B6875
:104980009B68BB60FB6823F07003FB603B681B689F
:10499000FA681343FB607B681B68FA685A607B689F
:1049A0001B681B4A934218D07B681B68194A9342C4
:1049B00013D07B681B68B3F1804F0ED07B681B68F7
:1049C000154A934209D07B681B68144A934204D06D
:1049D0007B681B68124A93420CD1BB6823F08003AA
:1049E000BB603B685B68BA681343BB607B681B684D
:1049F000BA689A607B68012283F83D207B680022B8
:104A000083F83C20002318461437BD4680BC70470D
:104A1000002C014000340140000400400008004028
:104A2000000C004080B485B000AF7860396000238E
:104A3000FB607B6893F83C30012B01D102233DE001
:104A40007B68012283F83C20FB6823F0FF023B686F
:104A5000DB681343FB60FB6823F440723B689B6890
:104A60001343FB60FB6823F480623B685B6813437D
:104A7000FB60FB6823F400623B681B681343FB6028
:104A8000FB6823F480523B681B691343FB60FB689F
:104A900023F400523B685B691343FB60FB6823F41B
:104AA00080423B68DB691343FB607B681B68FA68E4
:104AB0005A647B68002283F83C2000231846143790
:104AC000BD4680BC704780B483B000AF786000BF43
:104AD0000C37BD4680BC704780B483B000AF7860AF
:104AE00000BF0C37BD4680BC704780B582B000AFB8
:104AF00078607B68002B01D101233FE07B6893F84D
:104B00003D30DBB2002B06D17B68002283F83C20CD
:104B10007868FDF769FB7B68242283F83D207B6879
:104B20001B68DA687B681B6822F40052DA607868D8
:104B300000F084FC7B681B681A697B681B6822F4A0
:104B400090421A617B681B685A697B681B6822F077
:104B50002A025A617B681B68DA687B681B6842F42A
:104B60000052DA607B6800221A647B68202283F896
:104B70003D207B68202283F83E200023184608371A
:104B8000BD4680BD80B58AB002AFF860B9603B60B9
:104B90001346FB8000237B61FB6893F83D30DBB25A
:104BA000202B7CD1BB68002B02D0FB88002B01D1CD
:104BB000012375E0FB6893F83C30012B01D10223FF
:104BC0006EE0FB68012283F83C20FB6800221A6437
:104BD000FB68212283F83D20FDF7A8FD7861FB6882
:104BE000FA889A84FB68FA88DA84FB689B68B3F5D4
:104BF000805F08D1FB681B69002B04D10023FB6197
:104C0000BB68BB6103E0BB68FB610023BB61FB6861
:104C1000002283F83C202AE03B6800937B69002255
:104C20008021F86800F037FA0346002B01D00323F7
:104C300036E0FB69002B0BD1BB691B881A46FB6869
:104C40001B68C2F308025A60BB690233BB6107E00C
:104C5000FB691A78FB681B685A60FB690133FB61CA
:104C6000FB68DB8C9BB2013B9AB2FB68DA84FB6881
:104C7000DB8C9BB2002BCFD13B6800937B69002279
:104C80004021F86800F007FA0346002B01D0032307
:104C900006E0FB68202283F83D20002300E0022389
:104CA00018462037BD4680BD80B584B000AFF8609F
:104CB000B9601346FB80FB6893F83E30DBB2202BD3
:104CC0001DD1BB68002B02D0FB88002B01D1012332
:104CD00016E0FB6893F83C30012B01D102230FE072
:104CE000FB68012283F83C20FB6800221A63FB88E2
:104CF0001A46B968F86800F018FA034600E0022383
:104D000018461037BD4680BD80B58AB000AF7860C8
:104D10007B681B681B687B627B681B68DB683B6287
:104D20007B681B685B69FB610023BB6100237B61BF
:104D30007B6A03F00F03BB61BB69002B0DD17B6A5B
:104D400003F02003002B08D03B6A03F02003002B64
:104D500003D0786800F0C9FA7BE1BB69002B00F052
:104D6000B180FB6903F00103002B05D13B6A03F41A
:104D70009073002B00F0A6807B6A03F00103002BE8
:104D80000AD03B6A03F48073002B05D07B681B6C50
:104D900043F001027B681A647B6A03F00403002B72
:104DA0000AD0FB6903F00103002B05D07B681B6C64
:104DB00043F002027B681A647B6A03F00203002B53
:104DC0000AD0FB6903F00103002B05D07B681B6C44
:104DD00043F004027B681A647B6A03F00803002B2B
:104DE0000FD03B6A03F02003002B04D1FB6903F0D2
:104DF0000103002B05D07B681B6C43F008027B6825
:104E00001A647B681B6C002B00F01E817B6A03F028
:104E10002003002B07D03B6A03F02003002B02D0B5
:104E2000786800F062FA7B681B685B6903F04003F6
:104E3000002B14BF01230023DBB27B617B681B6C5A
:104E400003F00803002B02D17B69002B31D0786876
:104E500000F0A4F97B681B685B6903F04003002B3A
:104E600023D07B681B685A697B681B6822F040026C
:104E70005A617B689B6B002B13D07B689B6B764AD7
:104E80005A637B689B6B1846FDF7C6FD0346002BF3
:104E900016D07B689B6B5B6B7A68926B1046984769
:104EA0000EE0786800F0E3F80AE0786800F0DFF8D8
:104EB00006E0786800F0DBF87B6800221A64C3E043
:104EC00000BFC1E07B681B6B012B40F0A1807B6AB7
:104ED00003F01003002B00F09B803B6A03F01003EB
:104EE000002B00F095800023FB607B681B681B682B
:104EF000FB607B681B685B68FB60FB687B681B680A
:104F00005B6903F04003002B4ED07B689B6B1B68F2
:104F10005B683B823B8A002B00F098807B689B8D0E
:104F20003A8A9A4280F092807B683A8ADA857B6876
:104F30009B6B9B69202B2BD07B681B68DA687B6896
:104F40001B6822F48072DA607B681B685A697B6890
:104F50001B6822F001025A617B681B685A697B68F2
:104F60001B6822F040025A617B68202283F83E20B1
:104F70007B6800221A637B681B68DA687B681B68A1
:104F800022F01002DA607B689B6B1846FDF709FD82
:104F90007B689A8D7B68DB8D9BB2D31A9BB21946D6
:104FA000786800F06DF851E07B689A8D7B68DB8D46
:104FB0009BB2D31A7B827B68DB8D9BB2002B47D0E0
:104FC0007B8A002B44D07B681B68DA687B681B688F
:104FD00022F49072DA607B681B685A697B681B68F0
:104FE00022F001025A617B68202283F83E207B6810
:104FF00000221A637B681B68DA687B681B6822F0F2
:105000001002DA607B8A1946786800F039F81FE0F0
:105010007B6A03F08003002B08D03B6A03F0800317
:10502000002B03D0786800F0F9F812E07B6A03F0F7
:105030004003002B0DD03B6A03F04003002B08D047
:10504000786800F03AF904E000BF02E000BF00E039
:1050500000BF2837BD4680BDF551000880B483B03D
:1050600000AF786000BF0C37BD4680BC704780B48D
:1050700083B000AF786000BF0C37BD4680BC70477E
:1050800080B483B000AF78600B467B8000BF0C37E4
:10509000BD4680BC704780B584B000AFF860B96091
:1050A0003B601346FB712CE0BB69B3F1FF3F28D096
:1050B000BB69002B07D0FDF739FB02463B68D31ACA
:1050C000BA699A421DD2FB681B68DA68FB681B68E4
:1050D00022F4D072DA60FB681B685A69FB681B68AF
:1050E00022F001025A61FB68202283F83D20FB6810
:1050F000202283F83E20FB68002283F83C20032313
:105100000FE0FB681B681A68BB681340BA689A42D4
:105110000CBF01230023DBB21A46FB799A42C3D0AD
:10512000002318461037BD4680BD80B485B000AF5F
:10513000F860B9601346FB80FB68BA689A62FB6846
:10514000FA889A85FB68FA88DA85FB6800221A6477
:10515000FB68222283F83E20FB68002283F83C2073
:10516000FB681B68DA68FB681B6842F48072DA60CF
:10517000FB681B685A69FB681B6842F001025A61B0
:10518000FB681B68DA68FB681B6842F02002DA6083
:10519000002318461437BD4680BC704780B483B0E6
:1051A00000AF78607B681B68DA687B681B6822F454
:1051B0009072DA607B681B685A697B681B6822F012
:1051C00001025A617B681B6B012B07D17B681B684E
:1051D000DA687B681B6822F01002DA607B682022A4
:1051E00083F83E207B6800221A6300BF0C37BD465F
:1051F00080BC704780B584B000AF78607B685B6A24
:10520000FB60FB680022DA85FB680022DA84F8681C
:10521000FFF72DFF00BF1037BD4680BD80B485B0BD
:1052200000AF78607B6893F83D30DBB2212B3ED134
:105230007B689B68B3F5805F14D17B681B69002B8A
:1052400010D17B681B6AFB60FB681B881A467B6871
:105250001B68C2F308025A607B681B6A9A1C7B6851
:105260001A6208E07B681B6A591C7A6811621A7816
:105270007B681B685A607B68DB8C9BB2013B9BB2EE
:105280007A681946D184002B0FD17B681B68DA68D5
:105290007B681B6822F08002DA607B681B68DA6832
:1052A0007B681B6842F04002DA60002300E00223C2
:1052B00018461437BD4680BC704780B582B000AF39
:1052C00078607B681B68DA687B681B6822F04002A4
:1052D000DA607B68202283F83D207868FFF7BEFE05
:1052E000002318460837BD4680BD80B586B000AFA4
:1052F00078607B6893F83E30DBB2222B40F09980D7
:105300007B689B68B3F5805F17D17B681B69002BB6
:1053100013D100237B617B689B6A3B617B681B68C0
:105320005B689BB2C3F308039AB23B691A807B683F
:105330009B6A9A1C7B689A6226E07B689B6A7B6109
:1053400000233B617B689B68B3F5805F07D07B6877
:105350009B68002B0AD17B681B69002B06D17B68F8
:105360001B685B68DAB27B691A7008E07B681B68AF
:105370005B68DBB203F07F03DAB27B691A707B688B
:105380009B6A5A1C7B689A627B68DB8D9BB2013BEF
:105390009BB27A681946D185002B48D17B681B687F
:1053A000DA687B681B6822F02002DA607B681B6881
:1053B000DA687B681B6822F48072DA607B681B689D
:1053C0005A697B681B6822F001025A617B682022BF
:1053D00083F83E207B681B6B012B23D17B68002266
:1053E0001A637B681B68DA687B681B6822F010020E
:1053F000DA607B681B681B6803F01003102B0AD16E
:105400000023FB607B681B681B68FB607B681B6874
:105410005B68FB60FB687B689B8D19467868FFF7CB
:105420002FFE02E07868FCF79FFA002302E00023D9
:1054300000E0022318461837BD4680BD80B584B011
:1054400000AF78607B681B681B6923F440517B6860
:10545000DA687B681B680A431A617B689A687B6814
:105460001B691A437B685B691343BB607B681B68DD
:10547000DB6823F4B05323F00C037A681268B96830
:105480000B43D3607B681B685B6923F440717B68C6
:105490009A697B681B680A435A617B681B682C4ABF
:1054A000934203D1FEF79EF9F86002E0FEF786F919
:1054B000F860FA6813469B0013449A001A447B680C
:1054C0005B689B00B2FBF3F3224AA2FB03235B0958
:1054D0001901FA6813469B0013449A001A447B682A
:1054E0005B689B00B2FBF3F21A4BA3FB02035B0960
:1054F000642000FB03F3D31A1B013233154AA2FBCD
:1055000003235B0903F0F0031944FA6813469B0078
:1055100013449A001A447B685B689B00B2FBF3F269
:105520000C4BA3FB02035B09642000FB03F3D31ABB
:105530001B013233074AA2FB03235B0903F00F026E
:105540007B681B680A449A6000BF1037BD4680BD67
:10555000003801401F85EB5180B485B000AFEFF3F8
:105560000583BB60BB68002B0FD1EFF310837B601A
:105570007B68002B09D1104B1B68022B09D1EFF37C
:1055800011833B603B68002B03D06FF00503FB6089
:105590000CE0094B1B68002B05D1074B01221A6058
:1055A0000023FB6002E04FF0FF33FB60FB6818460E
:1055B0001437BD4680BC7047C800002080B584B059
:1055C00000AFEFF30583BB60BB68002B0FD1EFF397
:1055D00010837B607B68002B09D1114B1B68022B69
:1055E00009D1EFF311833B603B68002B03D06FF0D0
:1055F0000503FB600EE00A4B1B68012B07D1084B2B
:1056000002221A6001F03CF90023FB6002E04FF037
:10561000FF33FB60FB6818461037BD4680BD00BFF6
:10562000C800002080B592B004AFF860B9607A601D
:1056300000237B61EFF305837B627B6A002B40F0E4
:105640009480EFF310833B623B6A002B40F08D8027
:10565000484B1B68022B06D1EFF31183FB61FB69FA
:10566000002B40F08280FB68002B7ED080233B63C0
:105670001823FB620023FB7607F11B037B634FF0CB
:10568000FF33BB627B68002B45D07B681B68002B17
:1056900002D07B681B687B637B689B69002B02D010
:1056A0007B689B69FB62FB6A002B08D0FB6A382B86
:1056B00005D87B685B6803F00103002B01D0002351
:1056C00054E07B685B69002B03D07B685B699B08B7
:1056D0003B637B689B68002B0ED07B68DB685B2B91
:1056E0000AD97B681B69002B06D07B685B69002B9D
:1056F00002D00123BB6210E07B689B68002B0CD1B9
:105700007B68DB68002B08D17B681B69002B04D108
:105710000023BB6201E00023BB62BB6A012B10D1F6
:105720007B681B697A68926802920193FB6A009316
:10573000BB683A6B796BF86800F0D6FE03467B6174
:1057400013E0BB6A002B10D13B6B9AB207F1140334
:105750000193FB6A0093BB68796BF86800F020FF47
:105760000346012B01D000237B617B691846383743
:10577000BD4680BDC800002080B586B000AF78600F
:10578000EFF305833B613B69002B0FD1EFF31083EF
:10579000FB60FB68002B09D10D4B1B68022B09D164
:1057A000EFF31183BB60BB68002B03D06FF00503E0
:1057B0007B6107E000237B617B68002B02D0786867
:1057C00001F02AF87B6918461837BD4680BD00BF36
:1057D000C800002080B58CB002AFF860B9607A6074
:1057E00000237B62EFF30583BB61BB69002B6FD1A4
:1057F000EFF310837B617B69002B69D1374B1B680A
:10580000022B05D1EFF311833B613B69002B5FD184
:10581000FB68002B5CD0BB68002B59D04FF0FF33E6
:105820003B627B68002B29D07B689B68002B12D0E1
:105830007B68DB684F2B0ED97B681B69002B0AD075
:105840007B685A69FB68B96801FB03F39A4202D38B
:1058500001233B6214E07B689B68002B10D17B68BE
:10586000DB68002B0CD17B681B69002B08D17B689F
:105870005B69002B04D100233B6201E000233B6203
:105880003B6A012B0BD17B681A697B689B680021FE
:105890000091B968F86800F06DF9786208E03B6A39
:1058A000002B05D10022B968F86800F0DAF97862B7
:1058B0007B6A002B0CD07B68002B03D07B681B68B5
:1058C000FB6101E00023FB61F969786A00F0B0FD3B
:1058D0007B6A18462837BD4680BD00BFC80000203F
:1058E00080B485B000AFF860B9607A60FB68064AA2
:1058F0001A60BB68054A1A607B6880221A6000BF84
:105900001437BD4680BC7047CC0000202801002021
:1059100080B485B000AFF860B9607A60FB68074A70
:105920001A60BB68064A1A607B684FF480721A607E
:1059300000BF1437BD4680BC704700BF280300205D
:105940008403002080B483B000AF78607B6803F1EB
:1059500008027B685A607B684FF0FF329A607B6870
:1059600003F108027B68DA607B6803F108027B6858
:105970001A617B6800221A6000BF0C37BD4680BCEC
:10598000704780B483B000AF78607B6800221A61F2
:1059900000BF0C37BD4680BC704780B485B000AFF7
:1059A000786039607B685B68FB603B68FA685A60C6
:1059B000FB689A683B689A60FB689B683A685A6023
:1059C000FB683A689A603B687A681A617B681B6872
:1059D0005A1C7B681A6000BF1437BD4680BC7047F4
:1059E00080B485B000AF786039603B681B68BB60ED
:1059F000BB68B3F1FF3F03D17B681B69FB600CE020
:105A00007B680833FB6002E0FB685B68FB60FB6857
:105A10005B681B68BA689A42F6D2FB685A683B68B2
:105A20005A603B685B683A689A603B68FA689A60BB
:105A3000FB683A685A603B687A681A617B681B6841
:105A40005A1C7B681A6000BF1437BD4680BC704783
:105A500080B485B000AF78607B681B69FB607B68B1
:105A60005B687A6892689A607B689B687A6852681B
:105A70005A60FB685B687A689A4203D17B689A68CF
:105A8000FB685A607B6800221A61FB681B685A1E1B
:105A9000FB681A60FB681B6818461437BD4680BC5B
:105AA0007047000080B584B000AF786039607B68D3
:105AB000FB60FB68002B0AD14FF0500383F3118881
:105AC000BFF36F8FBFF34F8FBB6000BFFEE702F0E5
:105AD00005F8FB681A68FB68DB6BF968096C01FB69
